{
  "contractName": "UniswapV2Router02",
  "abi": [
    {
      "inputs": [
        {
          "internalType": "address",
          "name": "_factory",
          "type": "address"
        },
        {
          "internalType": "address",
          "name": "_WETH",
          "type": "address"
        }
      ],
      "stateMutability": "nonpayable",
      "type": "constructor"
    },
    {
      "inputs": [],
      "name": "WETH",
      "outputs": [
        {
          "internalType": "address",
          "name": "",
          "type": "address"
        }
      ],
      "stateMutability": "view",
      "type": "function",
      "constant": true
    },
    {
      "inputs": [],
      "name": "factory",
      "outputs": [
        {
          "internalType": "address",
          "name": "",
          "type": "address"
        }
      ],
      "stateMutability": "view",
      "type": "function",
      "constant": true
    },
    {
      "stateMutability": "payable",
      "type": "receive",
      "payable": true
    },
    {
      "inputs": [
        {
          "internalType": "address",
          "name": "tokenA",
          "type": "address"
        },
        {
          "internalType": "address",
          "name": "tokenB",
          "type": "address"
        },
        {
          "internalType": "uint256",
          "name": "amountADesired",
          "type": "uint256"
        },
        {
          "internalType": "uint256",
          "name": "amountBDesired",
          "type": "uint256"
        },
        {
          "internalType": "uint256",
          "name": "amountAMin",
          "type": "uint256"
        },
        {
          "internalType": "uint256",
          "name": "amountBMin",
          "type": "uint256"
        },
        {
          "internalType": "address",
          "name": "to",
          "type": "address"
        },
        {
          "internalType": "uint256",
          "name": "deadline",
          "type": "uint256"
        }
      ],
      "name": "addLiquidity",
      "outputs": [
        {
          "internalType": "uint256",
          "name": "amountA",
          "type": "uint256"
        },
        {
          "internalType": "uint256",
          "name": "amountB",
          "type": "uint256"
        },
        {
          "internalType": "uint256",
          "name": "liquidity",
          "type": "uint256"
        }
      ],
      "stateMutability": "nonpayable",
      "type": "function"
    },
    {
      "inputs": [
        {
          "internalType": "address",
          "name": "token",
          "type": "address"
        },
        {
          "internalType": "uint256",
          "name": "amountTokenDesired",
          "type": "uint256"
        },
        {
          "internalType": "uint256",
          "name": "amountTokenMin",
          "type": "uint256"
        },
        {
          "internalType": "uint256",
          "name": "amountETHMin",
          "type": "uint256"
        },
        {
          "internalType": "address",
          "name": "to",
          "type": "address"
        },
        {
          "internalType": "uint256",
          "name": "deadline",
          "type": "uint256"
        }
      ],
      "name": "addLiquidityETH",
      "outputs": [
        {
          "internalType": "uint256",
          "name": "amountToken",
          "type": "uint256"
        },
        {
          "internalType": "uint256",
          "name": "amountETH",
          "type": "uint256"
        },
        {
          "internalType": "uint256",
          "name": "liquidity",
          "type": "uint256"
        }
      ],
      "stateMutability": "payable",
      "type": "function",
      "payable": true
    },
    {
      "inputs": [
        {
          "internalType": "address",
          "name": "tokenA",
          "type": "address"
        },
        {
          "internalType": "address",
          "name": "tokenB",
          "type": "address"
        },
        {
          "internalType": "uint256",
          "name": "liquidity",
          "type": "uint256"
        },
        {
          "internalType": "uint256",
          "name": "amountAMin",
          "type": "uint256"
        },
        {
          "internalType": "uint256",
          "name": "amountBMin",
          "type": "uint256"
        },
        {
          "internalType": "address",
          "name": "to",
          "type": "address"
        },
        {
          "internalType": "uint256",
          "name": "deadline",
          "type": "uint256"
        }
      ],
      "name": "removeLiquidity",
      "outputs": [
        {
          "internalType": "uint256",
          "name": "amountA",
          "type": "uint256"
        },
        {
          "internalType": "uint256",
          "name": "amountB",
          "type": "uint256"
        }
      ],
      "stateMutability": "nonpayable",
      "type": "function"
    },
    {
      "inputs": [
        {
          "internalType": "address",
          "name": "token",
          "type": "address"
        },
        {
          "internalType": "uint256",
          "name": "liquidity",
          "type": "uint256"
        },
        {
          "internalType": "uint256",
          "name": "amountTokenMin",
          "type": "uint256"
        },
        {
          "internalType": "uint256",
          "name": "amountETHMin",
          "type": "uint256"
        },
        {
          "internalType": "address",
          "name": "to",
          "type": "address"
        },
        {
          "internalType": "uint256",
          "name": "deadline",
          "type": "uint256"
        }
      ],
      "name": "removeLiquidityETH",
      "outputs": [
        {
          "internalType": "uint256",
          "name": "amountToken",
          "type": "uint256"
        },
        {
          "internalType": "uint256",
          "name": "amountETH",
          "type": "uint256"
        }
      ],
      "stateMutability": "nonpayable",
      "type": "function"
    },
    {
      "inputs": [
        {
          "internalType": "address",
          "name": "tokenA",
          "type": "address"
        },
        {
          "internalType": "address",
          "name": "tokenB",
          "type": "address"
        },
        {
          "internalType": "uint256",
          "name": "liquidity",
          "type": "uint256"
        },
        {
          "internalType": "uint256",
          "name": "amountAMin",
          "type": "uint256"
        },
        {
          "internalType": "uint256",
          "name": "amountBMin",
          "type": "uint256"
        },
        {
          "internalType": "address",
          "name": "to",
          "type": "address"
        },
        {
          "internalType": "uint256",
          "name": "deadline",
          "type": "uint256"
        },
        {
          "internalType": "bool",
          "name": "approveMax",
          "type": "bool"
        },
        {
          "internalType": "uint8",
          "name": "v",
          "type": "uint8"
        },
        {
          "internalType": "bytes32",
          "name": "r",
          "type": "bytes32"
        },
        {
          "internalType": "bytes32",
          "name": "s",
          "type": "bytes32"
        }
      ],
      "name": "removeLiquidityWithPermit",
      "outputs": [
        {
          "internalType": "uint256",
          "name": "amountA",
          "type": "uint256"
        },
        {
          "internalType": "uint256",
          "name": "amountB",
          "type": "uint256"
        }
      ],
      "stateMutability": "nonpayable",
      "type": "function"
    },
    {
      "inputs": [
        {
          "internalType": "address",
          "name": "token",
          "type": "address"
        },
        {
          "internalType": "uint256",
          "name": "liquidity",
          "type": "uint256"
        },
        {
          "internalType": "uint256",
          "name": "amountTokenMin",
          "type": "uint256"
        },
        {
          "internalType": "uint256",
          "name": "amountETHMin",
          "type": "uint256"
        },
        {
          "internalType": "address",
          "name": "to",
          "type": "address"
        },
        {
          "internalType": "uint256",
          "name": "deadline",
          "type": "uint256"
        },
        {
          "internalType": "bool",
          "name": "approveMax",
          "type": "bool"
        },
        {
          "internalType": "uint8",
          "name": "v",
          "type": "uint8"
        },
        {
          "internalType": "bytes32",
          "name": "r",
          "type": "bytes32"
        },
        {
          "internalType": "bytes32",
          "name": "s",
          "type": "bytes32"
        }
      ],
      "name": "removeLiquidityETHWithPermit",
      "outputs": [
        {
          "internalType": "uint256",
          "name": "amountToken",
          "type": "uint256"
        },
        {
          "internalType": "uint256",
          "name": "amountETH",
          "type": "uint256"
        }
      ],
      "stateMutability": "nonpayable",
      "type": "function"
    },
    {
      "inputs": [
        {
          "internalType": "address",
          "name": "token",
          "type": "address"
        },
        {
          "internalType": "uint256",
          "name": "liquidity",
          "type": "uint256"
        },
        {
          "internalType": "uint256",
          "name": "amountTokenMin",
          "type": "uint256"
        },
        {
          "internalType": "uint256",
          "name": "amountETHMin",
          "type": "uint256"
        },
        {
          "internalType": "address",
          "name": "to",
          "type": "address"
        },
        {
          "internalType": "uint256",
          "name": "deadline",
          "type": "uint256"
        }
      ],
      "name": "removeLiquidityETHSupportingFeeOnTransferTokens",
      "outputs": [
        {
          "internalType": "uint256",
          "name": "amountETH",
          "type": "uint256"
        }
      ],
      "stateMutability": "nonpayable",
      "type": "function"
    },
    {
      "inputs": [
        {
          "internalType": "address",
          "name": "token",
          "type": "address"
        },
        {
          "internalType": "uint256",
          "name": "liquidity",
          "type": "uint256"
        },
        {
          "internalType": "uint256",
          "name": "amountTokenMin",
          "type": "uint256"
        },
        {
          "internalType": "uint256",
          "name": "amountETHMin",
          "type": "uint256"
        },
        {
          "internalType": "address",
          "name": "to",
          "type": "address"
        },
        {
          "internalType": "uint256",
          "name": "deadline",
          "type": "uint256"
        },
        {
          "internalType": "bool",
          "name": "approveMax",
          "type": "bool"
        },
        {
          "internalType": "uint8",
          "name": "v",
          "type": "uint8"
        },
        {
          "internalType": "bytes32",
          "name": "r",
          "type": "bytes32"
        },
        {
          "internalType": "bytes32",
          "name": "s",
          "type": "bytes32"
        }
      ],
      "name": "removeLiquidityETHWithPermitSupportingFeeOnTransferTokens",
      "outputs": [
        {
          "internalType": "uint256",
          "name": "amountETH",
          "type": "uint256"
        }
      ],
      "stateMutability": "nonpayable",
      "type": "function"
    },
    {
      "inputs": [
        {
          "internalType": "uint256",
          "name": "amountIn",
          "type": "uint256"
        },
        {
          "internalType": "uint256",
          "name": "amountOutMin",
          "type": "uint256"
        },
        {
          "internalType": "address[]",
          "name": "path",
          "type": "address[]"
        },
        {
          "internalType": "address",
          "name": "to",
          "type": "address"
        },
        {
          "internalType": "uint256",
          "name": "deadline",
          "type": "uint256"
        }
      ],
      "name": "swapExactTokensForTokens",
      "outputs": [
        {
          "internalType": "uint256[]",
          "name": "amounts",
          "type": "uint256[]"
        }
      ],
      "stateMutability": "nonpayable",
      "type": "function"
    },
    {
      "inputs": [
        {
          "internalType": "uint256",
          "name": "amountOut",
          "type": "uint256"
        },
        {
          "internalType": "uint256",
          "name": "amountInMax",
          "type": "uint256"
        },
        {
          "internalType": "address[]",
          "name": "path",
          "type": "address[]"
        },
        {
          "internalType": "address",
          "name": "to",
          "type": "address"
        },
        {
          "internalType": "uint256",
          "name": "deadline",
          "type": "uint256"
        }
      ],
      "name": "swapTokensForExactTokens",
      "outputs": [
        {
          "internalType": "uint256[]",
          "name": "amounts",
          "type": "uint256[]"
        }
      ],
      "stateMutability": "nonpayable",
      "type": "function"
    },
    {
      "inputs": [
        {
          "internalType": "uint256",
          "name": "amountOutMin",
          "type": "uint256"
        },
        {
          "internalType": "address[]",
          "name": "path",
          "type": "address[]"
        },
        {
          "internalType": "address",
          "name": "to",
          "type": "address"
        },
        {
          "internalType": "uint256",
          "name": "deadline",
          "type": "uint256"
        }
      ],
      "name": "swapExactETHForTokens",
      "outputs": [
        {
          "internalType": "uint256[]",
          "name": "amounts",
          "type": "uint256[]"
        }
      ],
      "stateMutability": "payable",
      "type": "function",
      "payable": true
    },
    {
      "inputs": [
        {
          "internalType": "uint256",
          "name": "amountOut",
          "type": "uint256"
        },
        {
          "internalType": "uint256",
          "name": "amountInMax",
          "type": "uint256"
        },
        {
          "internalType": "address[]",
          "name": "path",
          "type": "address[]"
        },
        {
          "internalType": "address",
          "name": "to",
          "type": "address"
        },
        {
          "internalType": "uint256",
          "name": "deadline",
          "type": "uint256"
        }
      ],
      "name": "swapTokensForExactETH",
      "outputs": [
        {
          "internalType": "uint256[]",
          "name": "amounts",
          "type": "uint256[]"
        }
      ],
      "stateMutability": "nonpayable",
      "type": "function"
    },
    {
      "inputs": [
        {
          "internalType": "uint256",
          "name": "amountIn",
          "type": "uint256"
        },
        {
          "internalType": "uint256",
          "name": "amountOutMin",
          "type": "uint256"
        },
        {
          "internalType": "address[]",
          "name": "path",
          "type": "address[]"
        },
        {
          "internalType": "address",
          "name": "to",
          "type": "address"
        },
        {
          "internalType": "uint256",
          "name": "deadline",
          "type": "uint256"
        }
      ],
      "name": "swapExactTokensForETH",
      "outputs": [
        {
          "internalType": "uint256[]",
          "name": "amounts",
          "type": "uint256[]"
        }
      ],
      "stateMutability": "nonpayable",
      "type": "function"
    },
    {
      "inputs": [
        {
          "internalType": "uint256",
          "name": "amountOut",
          "type": "uint256"
        },
        {
          "internalType": "address[]",
          "name": "path",
          "type": "address[]"
        },
        {
          "internalType": "address",
          "name": "to",
          "type": "address"
        },
        {
          "internalType": "uint256",
          "name": "deadline",
          "type": "uint256"
        }
      ],
      "name": "swapETHForExactTokens",
      "outputs": [
        {
          "internalType": "uint256[]",
          "name": "amounts",
          "type": "uint256[]"
        }
      ],
      "stateMutability": "payable",
      "type": "function",
      "payable": true
    },
    {
      "inputs": [
        {
          "internalType": "uint256",
          "name": "amountIn",
          "type": "uint256"
        },
        {
          "internalType": "uint256",
          "name": "amountOutMin",
          "type": "uint256"
        },
        {
          "internalType": "address[]",
          "name": "path",
          "type": "address[]"
        },
        {
          "internalType": "address",
          "name": "to",
          "type": "address"
        },
        {
          "internalType": "uint256",
          "name": "deadline",
          "type": "uint256"
        }
      ],
      "name": "swapExactTokensForTokensSupportingFeeOnTransferTokens",
      "outputs": [],
      "stateMutability": "nonpayable",
      "type": "function"
    },
    {
      "inputs": [
        {
          "internalType": "uint256",
          "name": "amountOutMin",
          "type": "uint256"
        },
        {
          "internalType": "address[]",
          "name": "path",
          "type": "address[]"
        },
        {
          "internalType": "address",
          "name": "to",
          "type": "address"
        },
        {
          "internalType": "uint256",
          "name": "deadline",
          "type": "uint256"
        }
      ],
      "name": "swapExactETHForTokensSupportingFeeOnTransferTokens",
      "outputs": [],
      "stateMutability": "payable",
      "type": "function",
      "payable": true
    },
    {
      "inputs": [
        {
          "internalType": "uint256",
          "name": "amountIn",
          "type": "uint256"
        },
        {
          "internalType": "uint256",
          "name": "amountOutMin",
          "type": "uint256"
        },
        {
          "internalType": "address[]",
          "name": "path",
          "type": "address[]"
        },
        {
          "internalType": "address",
          "name": "to",
          "type": "address"
        },
        {
          "internalType": "uint256",
          "name": "deadline",
          "type": "uint256"
        }
      ],
      "name": "swapExactTokensForETHSupportingFeeOnTransferTokens",
      "outputs": [],
      "stateMutability": "nonpayable",
      "type": "function"
    },
    {
      "inputs": [
        {
          "internalType": "uint256",
          "name": "amountA",
          "type": "uint256"
        },
        {
          "internalType": "uint256",
          "name": "reserveA",
          "type": "uint256"
        },
        {
          "internalType": "uint256",
          "name": "reserveB",
          "type": "uint256"
        }
      ],
      "name": "quote",
      "outputs": [
        {
          "internalType": "uint256",
          "name": "amountB",
          "type": "uint256"
        }
      ],
      "stateMutability": "pure",
      "type": "function",
      "constant": true
    },
    {
      "inputs": [
        {
          "internalType": "uint256",
          "name": "amountIn",
          "type": "uint256"
        },
        {
          "internalType": "uint256",
          "name": "reserveIn",
          "type": "uint256"
        },
        {
          "internalType": "uint256",
          "name": "reserveOut",
          "type": "uint256"
        }
      ],
      "name": "getAmountOut",
      "outputs": [
        {
          "internalType": "uint256",
          "name": "amountOut",
          "type": "uint256"
        }
      ],
      "stateMutability": "view",
      "type": "function",
      "constant": true
    },
    {
      "inputs": [
        {
          "internalType": "uint256",
          "name": "amountOut",
          "type": "uint256"
        },
        {
          "internalType": "uint256",
          "name": "reserveIn",
          "type": "uint256"
        },
        {
          "internalType": "uint256",
          "name": "reserveOut",
          "type": "uint256"
        }
      ],
      "name": "getAmountIn",
      "outputs": [
        {
          "internalType": "uint256",
          "name": "amountIn",
          "type": "uint256"
        }
      ],
      "stateMutability": "view",
      "type": "function",
      "constant": true
    },
    {
      "inputs": [
        {
          "internalType": "uint256",
          "name": "amountIn",
          "type": "uint256"
        },
        {
          "internalType": "address[]",
          "name": "path",
          "type": "address[]"
        }
      ],
      "name": "getAmountsOut",
      "outputs": [
        {
          "internalType": "uint256[]",
          "name": "amounts",
          "type": "uint256[]"
        }
      ],
      "stateMutability": "view",
      "type": "function",
      "constant": true
    },
    {
      "inputs": [
        {
          "internalType": "uint256",
          "name": "amountOut",
          "type": "uint256"
        },
        {
          "internalType": "address[]",
          "name": "path",
          "type": "address[]"
        }
      ],
      "name": "getAmountsIn",
      "outputs": [
        {
          "internalType": "uint256[]",
          "name": "amounts",
          "type": "uint256[]"
        }
      ],
      "stateMutability": "view",
      "type": "function",
      "constant": true
    }
  ],
  "bytecode": "0x60c06040523480156200001157600080fd5b506040516200496138038062004961833981016040819052620000349162000070565b6001600160601b0319606092831b8116608052911b1660a052620000a7565b80516001600160a01b03811681146200006b57600080fd5b919050565b6000806040838503121562000083578182fd5b6200008e8362000053565b91506200009e6020840162000053565b90509250929050565b60805160601c60a05160601c6147146200024d6000396000818161015f015281816104d701528181610527015281816105f40152818161087901528181610c0401528181610d690152818161111d0152818161121e015281816112dc01528181611372015281816114ba01528181611556015281816117ef0152818161184701528181611914015281816119b301528181611a3e01528181611ab201528181611f8401528181612187015281816121dd01528181612211015281816122970152818161240b0152818161254701526125e301526000818161068b0152818161077a01528181610987015281816109c001528181610ac401528181610c9b01528181610d4701528181610e8c01528181611408015281816115880152818161174901528181611ae401528181611d4101528181611efb01528181611f3101528181611f620152818161208b015281816121bb015281816124a10152818161261501528181612932015281816129d201528181612f4201528181612fa0015281816132b901528181613481015281816136df01528181613794015261382701526147146000f3fe60806040526004361061014f5760003560e01c80638803dbee116100b6578063c45a01551161006f578063c45a0155146103fa578063d06ca61f1461040f578063ded9382a1461042f578063e8e337001461044f578063f305d7191461047e578063fb3bdb41146104915761019c565b80638803dbee14610345578063ad5c464814610365578063ad615dec14610387578063af2979eb146103a7578063b6f9de95146103c7578063baa2abde146103da5761019c565b80634a25d94a116101085780634a25d94a146102925780635b0d5984146102b25780635c11d795146102d2578063791ac947146102f25780637ff36ab51461031257806385f8c259146103255761019c565b806302751cec146101a1578063054d50d4146101d857806318cbafe5146102055780631f00ca74146102325780632195995c1461025257806338ed1739146102725761019c565b3661019c57336001600160a01b037f0000000000000000000000000000000000000000000000000000000000000000161461019a57634e487b7160e01b600052600160045260246000fd5b005b600080fd5b3480156101ad57600080fd5b506101c16101bc366004613c34565b6104a4565b6040516101cf92919061454c565b60405180910390f35b3480156101e457600080fd5b506101f86101f3366004613f6e565b6105a4565b6040516101cf9190614543565b34801561021157600080fd5b50610225610220366004613efd565b6105c7565b6040516101cf91906140de565b34801561023e57600080fd5b5061022561024d366004613e0d565b610973565b34801561025e57600080fd5b506101c161026d366004613b10565b6109b6565b34801561027e57600080fd5b5061022561028d366004613efd565b610a8f565b34801561029e57600080fd5b506102256102ad366004613efd565b610bd7565b3480156102be57600080fd5b506101f86102cd366004613c91565b610d3f565b3480156102de57600080fd5b5061019a6102ed366004613efd565b610e2c565b3480156102fe57600080fd5b5061019a61030d366004613efd565b6110f2565b610225610320366004613da8565b61134d565b34801561033157600080fd5b506101f8610340366004613f6e565b6116fa565b34801561035157600080fd5b50610225610360366004613efd565b611714565b34801561037157600080fd5b5061037a6117ed565b6040516101cf9190614032565b34801561039357600080fd5b506101f86103a2366004613f6e565b611811565b3480156103b357600080fd5b506101f86103c2366004613c34565b61181e565b61019a6103d5366004613da8565b611990565b3480156103e657600080fd5b506101c16103f5366004613a9f565b611d16565b34801561040657600080fd5b5061037a611ef9565b34801561041b57600080fd5b5061022561042a366004613e0d565b611f1d565b34801561043b57600080fd5b506101c161044a366004613c91565b611f58565b34801561045b57600080fd5b5061046f61046a366004613bb9565b61204b565b6040516101cf939291906145aa565b61046f61048c366004613c34565b61215b565b61022561049f366004613da8565b6123e6565b60008082428110156104d15760405162461bcd60e51b81526004016104c890614159565b60405180910390fd5b610500897f00000000000000000000000000000000000000000000000000000000000000008a8a8a308a611d16565b90935091506105108986856127ae565b604051632e1a7d4d60e01b81526001600160a01b037f00000000000000000000000000000000000000000000000000000000000000001690632e1a7d4d9061055c908590600401614543565b600060405180830381600087803b15801561057657600080fd5b505af115801561058a573d6000803e3d6000fd5b50505050610598858361289b565b50965096945050505050565b6000806105b03361292d565b90506105be85828686612a87565b95945050505050565b606081428110156105ea5760405162461bcd60e51b81526004016104c890614159565b6001600160a01b037f0000000000000000000000000000000000000000000000000000000000000000168686610621600182614617565b81811061063e57634e487b7160e01b600052603260045260246000fd5b90506020020160208101906106539190613a60565b6001600160a01b0316146106795760405162461bcd60e51b81526004016104c890614267565b60006106843361292d565b90506106e57f00000000000000000000000000000000000000000000000000000000000000008a838a8a80806020026020016040519081016040528093929190818152602001838360200280828437600092019190915250612b2192505050565b92508783600185516106f79190614617565b8151811061071557634e487b7160e01b600052603260045260246000fd5b6020026020010151101561073b5760405162461bcd60e51b81526004016104c890614432565b6108388787600081811061075f57634e487b7160e01b600052603260045260246000fd5b90506020020160208101906107749190613a60565b3361080a7f00000000000000000000000000000000000000000000000000000000000000008b8b60008181106107ba57634e487b7160e01b600052603260045260246000fd5b90506020020160208101906107cf9190613a60565b8c8c60018181106107f057634e487b7160e01b600052603260045260246000fd5b90506020020160208101906108059190613a60565b612cd2565b8660008151811061082b57634e487b7160e01b600052603260045260246000fd5b6020026020010151612d45565b61087783888880806020026020016040519081016040528093929190818152602001838360200280828437600092019190915250309250612e35915050565b7f00000000000000000000000000000000000000000000000000000000000000006001600160a01b0316632e1a7d4d84600186516108b59190614617565b815181106108d357634e487b7160e01b600052603260045260246000fd5b60200260200101516040518263ffffffff1660e01b81526004016108f79190614543565b600060405180830381600087803b15801561091157600080fd5b505af1158015610925573d6000803e3d6000fd5b5050505061096785846001865161093c9190614617565b8151811061095a57634e487b7160e01b600052603260045260246000fd5b602002602001015161289b565b50509695505050505050565b606060006109803361292d565b90506109ae7f0000000000000000000000000000000000000000000000000000000000000000858386613075565b949350505050565b60008060006109e67f00000000000000000000000000000000000000000000000000000000000000008f8f612cd2565b90506000876109f5578c6109f9565b6000195b60405163d505accf60e01b81529091506001600160a01b0383169063d505accf90610a34903390309086908f908e908e908e90600401614084565b600060405180830381600087803b158015610a4e57600080fd5b505af1158015610a62573d6000803e3d6000fd5b50505050610a758f8f8f8f8f8f8f611d16565b809450819550505050509b509b9950505050505050505050565b60608142811015610ab25760405162461bcd60e51b81526004016104c890614159565b6000610abd3361292d565b9050610b1e7f00000000000000000000000000000000000000000000000000000000000000008a838a8a80806020026020016040519081016040528093929190818152602001838360200280828437600092019190915250612b2192505050565b9250878360018551610b309190614617565b81518110610b4e57634e487b7160e01b600052603260045260246000fd5b60200260200101511015610b745760405162461bcd60e51b81526004016104c890614432565b610b988787600081811061075f57634e487b7160e01b600052603260045260246000fd5b610967838888808060200260200160405190810160405280939291908181526020018383602002808284376000920191909152508a9250612e35915050565b60608142811015610bfa5760405162461bcd60e51b81526004016104c890614159565b6001600160a01b037f0000000000000000000000000000000000000000000000000000000000000000168686610c31600182614617565b818110610c4e57634e487b7160e01b600052603260045260246000fd5b9050602002016020810190610c639190613a60565b6001600160a01b031614610c895760405162461bcd60e51b81526004016104c890614267565b6000610c943361292d565b9050610cf57f00000000000000000000000000000000000000000000000000000000000000008a838a8a8080602002602001604051908101604052809392919081815260200183836020028082843760009201919091525061307592505050565b92508783600081518110610d1957634e487b7160e01b600052603260045260246000fd5b6020026020010151111561073b5760405162461bcd60e51b81526004016104c890614362565b600080610d8d7f00000000000000000000000000000000000000000000000000000000000000008d7f0000000000000000000000000000000000000000000000000000000000000000612cd2565b9050600086610d9c578b610da0565b6000195b60405163d505accf60e01b81529091506001600160a01b0383169063d505accf90610ddb903390309086908e908d908d908d90600401614084565b600060405180830381600087803b158015610df557600080fd5b505af1158015610e09573d6000803e3d6000fd5b50505050610e1b8d8d8d8d8d8d61181e565b9d9c50505050505050505050505050565b8042811015610e4d5760405162461bcd60e51b81526004016104c890614159565b610f0885856000818110610e7157634e487b7160e01b600052603260045260246000fd5b9050602002016020810190610e869190613a60565b33610f027f000000000000000000000000000000000000000000000000000000000000000089896000818110610ecc57634e487b7160e01b600052603260045260246000fd5b9050602002016020810190610ee19190613a60565b8a8a60018181106107f057634e487b7160e01b600052603260045260246000fd5b8a612d45565b60008585610f17600182614617565b818110610f3457634e487b7160e01b600052603260045260246000fd5b9050602002016020810190610f499190613a60565b6001600160a01b03166370a08231856040518263ffffffff1660e01b8152600401610f749190614032565b60206040518083038186803b158015610f8c57600080fd5b505afa158015610fa0573d6000803e3d6000fd5b505050506040513d601f19601f82011682018060405250810190610fc49190613d90565b905061100486868080602002602001604051908101604052809392919081815260200183836020028082843760009201919091525088925061321b915050565b86818787611013600182614617565b81811061103057634e487b7160e01b600052603260045260246000fd5b90506020020160208101906110459190613a60565b6001600160a01b03166370a08231876040518263ffffffff1660e01b81526004016110709190614032565b60206040518083038186803b15801561108857600080fd5b505afa15801561109c573d6000803e3d6000fd5b505050506040513d601f19601f820116820180604052508101906110c09190613d90565b6110ca9190614617565b10156110e85760405162461bcd60e51b81526004016104c890614432565b5050505050505050565b80428110156111135760405162461bcd60e51b81526004016104c890614159565b6001600160a01b037f000000000000000000000000000000000000000000000000000000000000000016858561114a600182614617565b81811061116757634e487b7160e01b600052603260045260246000fd5b905060200201602081019061117c9190613a60565b6001600160a01b0316146111a25760405162461bcd60e51b81526004016104c890614267565b6111c685856000818110610e7157634e487b7160e01b600052603260045260246000fd5b61120485858080602002602001604051908101604052809392919081815260200183836020028082843760009201919091525030925061321b915050565b6040516370a0823160e01b81526000906001600160a01b037f000000000000000000000000000000000000000000000000000000000000000016906370a0823190611253903090600401614032565b60206040518083038186803b15801561126b57600080fd5b505afa15801561127f573d6000803e3d6000fd5b505050506040513d601f19601f820116820180604052508101906112a39190613d90565b9050868110156112c55760405162461bcd60e51b81526004016104c890614432565b604051632e1a7d4d60e01b81526001600160a01b037f00000000000000000000000000000000000000000000000000000000000000001690632e1a7d4d90611311908490600401614543565b600060405180830381600087803b15801561132b57600080fd5b505af115801561133f573d6000803e3d6000fd5b505050506110e8848261289b565b606081428110156113705760405162461bcd60e51b81526004016104c890614159565b7f00000000000000000000000000000000000000000000000000000000000000006001600160a01b0316868660008181106113bb57634e487b7160e01b600052603260045260246000fd5b90506020020160208101906113d09190613a60565b6001600160a01b0316146113f65760405162461bcd60e51b81526004016104c890614267565b60006114013361292d565b90506114627f000000000000000000000000000000000000000000000000000000000000000034838a8a80806020026020016040519081016040528093929190818152602001838360200280828437600092019190915250612b2192505050565b92508783600185516114749190614617565b8151811061149257634e487b7160e01b600052603260045260246000fd5b602002602001015110156114b85760405162461bcd60e51b81526004016104c890614432565b7f00000000000000000000000000000000000000000000000000000000000000006001600160a01b031663d0e30db08460008151811061150857634e487b7160e01b600052603260045260246000fd5b60200260200101516040518263ffffffff1660e01b81526004016000604051808303818588803b15801561153b57600080fd5b505af115801561154f573d6000803e3d6000fd5b50505050507f00000000000000000000000000000000000000000000000000000000000000006001600160a01b031663a9059cbb6115fe7f00000000000000000000000000000000000000000000000000000000000000008a8a60008181106115c857634e487b7160e01b600052603260045260246000fd5b90506020020160208101906115dd9190613a60565b8b8b60018181106107f057634e487b7160e01b600052603260045260246000fd5b8560008151811061161f57634e487b7160e01b600052603260045260246000fd5b60200260200101516040518363ffffffff1660e01b81526004016116449291906140c5565b602060405180830381600087803b15801561165e57600080fd5b505af1158015611672573d6000803e3d6000fd5b505050506040513d601f19601f820116820180604052508101906116969190613d26565b6116b057634e487b7160e01b600052600160045260246000fd5b6116ef838888808060200260200160405190810160405280939291908181526020018383602002808284376000920191909152508a9250612e35915050565b505095945050505050565b6000806117063361292d565b90506105be8582868661353d565b606081428110156117375760405162461bcd60e51b81526004016104c890614159565b60006117423361292d565b90506117a37f00000000000000000000000000000000000000000000000000000000000000008a838a8a8080602002602001604051908101604052809392919081815260200183836020028082843760009201919091525061307592505050565b925087836000815181106117c757634e487b7160e01b600052603260045260246000fd5b60200260200101511115610b745760405162461bcd60e51b81526004016104c890614362565b7f000000000000000000000000000000000000000000000000000000000000000081565b60006109ae8484846135dd565b600081428110156118415760405162461bcd60e51b81526004016104c890614159565b611870887f00000000000000000000000000000000000000000000000000000000000000008989893089611d16565b6040516370a0823160e01b81529093506118fd9150899086906001600160a01b038316906370a08231906118a8903090600401614032565b60206040518083038186803b1580156118c057600080fd5b505afa1580156118d4573d6000803e3d6000fd5b505050506040513d601f19601f820116820180604052508101906118f89190613d90565b6127ae565b604051632e1a7d4d60e01b81526001600160a01b037f00000000000000000000000000000000000000000000000000000000000000001690632e1a7d4d90611949908590600401614543565b600060405180830381600087803b15801561196357600080fd5b505af1158015611977573d6000803e3d6000fd5b50505050611985848361289b565b509695505050505050565b80428110156119b15760405162461bcd60e51b81526004016104c890614159565b7f00000000000000000000000000000000000000000000000000000000000000006001600160a01b0316858560008181106119fc57634e487b7160e01b600052603260045260246000fd5b9050602002016020810190611a119190613a60565b6001600160a01b031614611a375760405162461bcd60e51b81526004016104c890614267565b60003490507f00000000000000000000000000000000000000000000000000000000000000006001600160a01b031663d0e30db0826040518263ffffffff1660e01b81526004016000604051808303818588803b158015611a9757600080fd5b505af1158015611aab573d6000803e3d6000fd5b50505050507f00000000000000000000000000000000000000000000000000000000000000006001600160a01b031663a9059cbb611b247f000000000000000000000000000000000000000000000000000000000000000089896000818110610ecc57634e487b7160e01b600052603260045260246000fd5b836040518363ffffffff1660e01b8152600401611b429291906140c5565b602060405180830381600087803b158015611b5c57600080fd5b505af1158015611b70573d6000803e3d6000fd5b505050506040513d601f19601f82011682018060405250810190611b949190613d26565b611bae57634e487b7160e01b600052600160045260246000fd5b60008686611bbd600182614617565b818110611bda57634e487b7160e01b600052603260045260246000fd5b9050602002016020810190611bef9190613a60565b6001600160a01b03166370a08231866040518263ffffffff1660e01b8152600401611c1a9190614032565b60206040518083038186803b158015611c3257600080fd5b505afa158015611c46573d6000803e3d6000fd5b505050506040513d601f19601f82011682018060405250810190611c6a9190613d90565b9050611caa87878080602002602001604051908101604052809392919081815260200183836020028082843760009201919091525089925061321b915050565b87818888611cb9600182614617565b818110611cd657634e487b7160e01b600052603260045260246000fd5b9050602002016020810190611ceb9190613a60565b6001600160a01b03166370a08231886040518263ffffffff1660e01b81526004016110709190614032565b6000808242811015611d3a5760405162461bcd60e51b81526004016104c890614159565b6000611d677f00000000000000000000000000000000000000000000000000000000000000008c8c612cd2565b6040516323b872dd60e01b81529091506001600160a01b038216906323b872dd90611d9a90339085908e90600401614060565b602060405180830381600087803b158015611db457600080fd5b505af1158015611dc8573d6000803e3d6000fd5b505050506040513d601f19601f82011682018060405250810190611dec9190613d26565b50600080826001600160a01b03166389afcb44896040518263ffffffff1660e01b8152600401611e1c9190614032565b6040805180830381600087803b158015611e3557600080fd5b505af1158015611e49573d6000803e3d6000fd5b505050506040513d601f19601f82011682018060405250810190611e6d9190613eda565b915091506000611e7d8e8e61363f565b509050806001600160a01b03168e6001600160a01b031614611ea0578183611ea3565b82825b90975095508a871015611ec85760405162461bcd60e51b81526004016104c8906143a9565b89861015611ee85760405162461bcd60e51b81526004016104c890614221565b505050505097509795505050505050565b7f000000000000000000000000000000000000000000000000000000000000000081565b60606000611f2a3361292d565b90506109ae7f0000000000000000000000000000000000000000000000000000000000000000858386612b21565b6000806000611fa87f00000000000000000000000000000000000000000000000000000000000000008e7f0000000000000000000000000000000000000000000000000000000000000000612cd2565b9050600087611fb7578c611fbb565b6000195b60405163d505accf60e01b81529091506001600160a01b0383169063d505accf90611ff6903390309086908f908e908e908e90600401614084565b600060405180830381600087803b15801561201057600080fd5b505af1158015612024573d6000803e3d6000fd5b505050506120368e8e8e8e8e8e6104a4565b909f909e509c50505050505050505050505050565b600080600083428110156120715760405162461bcd60e51b81526004016104c890614159565b61207f8c8c8c8c8c8c6136c9565b909450925060006120b17f00000000000000000000000000000000000000000000000000000000000000008e8e612cd2565b90506120bf8d338388612d45565b6120cb8c338387612d45565b6040516335313c2160e11b81526001600160a01b03821690636a627842906120f7908a90600401614032565b602060405180830381600087803b15801561211157600080fd5b505af1158015612125573d6000803e3d6000fd5b505050506040513d601f19601f820116820180604052508101906121499190613d90565b92505050985098509895505050505050565b600080600083428110156121815760405162461bcd60e51b81526004016104c890614159565b6121af8a7f00000000000000000000000000000000000000000000000000000000000000008b348c8c6136c9565b909450925060006122017f00000000000000000000000000000000000000000000000000000000000000008c7f0000000000000000000000000000000000000000000000000000000000000000612cd2565b905061220f8b338388612d45565b7f00000000000000000000000000000000000000000000000000000000000000006001600160a01b031663d0e30db0856040518263ffffffff1660e01b81526004016000604051808303818588803b15801561226a57600080fd5b505af115801561227e573d6000803e3d6000fd5b505060405163a9059cbb60e01b81526001600160a01b037f000000000000000000000000000000000000000000000000000000000000000016935063a9059cbb92506122d19150849088906004016140c5565b602060405180830381600087803b1580156122eb57600080fd5b505af11580156122ff573d6000803e3d6000fd5b505050506040513d601f19601f820116820180604052508101906123239190613d26565b61233d57634e487b7160e01b600052600160045260246000fd5b6040516335313c2160e11b81526001600160a01b03821690636a62784290612369908a90600401614032565b602060405180830381600087803b15801561238357600080fd5b505af1158015612397573d6000803e3d6000fd5b505050506040513d601f19601f820116820180604052508101906123bb9190613d90565b9250833411156123d8576123d8336123d38634614617565b61289b565b505096509650969350505050565b606081428110156124095760405162461bcd60e51b81526004016104c890614159565b7f00000000000000000000000000000000000000000000000000000000000000006001600160a01b03168686600081811061245457634e487b7160e01b600052603260045260246000fd5b90506020020160208101906124699190613a60565b6001600160a01b03161461248f5760405162461bcd60e51b81526004016104c890614267565b600061249a3361292d565b90506124fb7f000000000000000000000000000000000000000000000000000000000000000089838a8a8080602002602001604051908101604052809392919081815260200183836020028082843760009201919091525061307592505050565b9250348360008151811061251f57634e487b7160e01b600052603260045260246000fd5b602002602001015111156125455760405162461bcd60e51b81526004016104c890614362565b7f00000000000000000000000000000000000000000000000000000000000000006001600160a01b031663d0e30db08460008151811061259557634e487b7160e01b600052603260045260246000fd5b60200260200101516040518263ffffffff1660e01b81526004016000604051808303818588803b1580156125c857600080fd5b505af11580156125dc573d6000803e3d6000fd5b50505050507f00000000000000000000000000000000000000000000000000000000000000006001600160a01b031663a9059cbb6126557f00000000000000000000000000000000000000000000000000000000000000008a8a60008181106115c857634e487b7160e01b600052603260045260246000fd5b8560008151811061267657634e487b7160e01b600052603260045260246000fd5b60200260200101516040518363ffffffff1660e01b815260040161269b9291906140c5565b602060405180830381600087803b1580156126b557600080fd5b505af11580156126c9573d6000803e3d6000fd5b505050506040513d601f19601f820116820180604052508101906126ed9190613d26565b61270757634e487b7160e01b600052600160045260246000fd5b612746838888808060200260200160405190810160405280939291908181526020018383602002808284376000920191909152508a9250612e35915050565b8260008151811061276757634e487b7160e01b600052603260045260246000fd5b60200260200101513411156116ef576116ef338460008151811061279b57634e487b7160e01b600052603260045260246000fd5b6020026020010151346123d39190614617565b600080846001600160a01b031663a9059cbb85856040516024016127d39291906140c5565b6040516020818303038152906040529060e01b6020820180516001600160e01b03838183161783525050505060405161280c9190613fc0565b6000604051808303816000865af19150503d8060008114612849576040519150601f19603f3d011682016040523d82523d6000602084013e61284e565b606091505b50915091508180156128785750805115806128785750808060200190518101906128789190613d26565b6128945760405162461bcd60e51b81526004016104c890614122565b5050505050565b604080516000808252602082019092526001600160a01b0384169083906040516128c59190613fc0565b60006040518083038185875af1925050503d8060008114612902576040519150601f19603f3d011682016040523d82523d6000602084013e612907565b606091505b50509050806129285760405162461bcd60e51b81526004016104c8906143ef565b505050565b6000807f00000000000000000000000000000000000000000000000000000000000000006001600160a01b031663b13b90ff306040518263ffffffff1660e01b815260040161297c9190614032565b60206040518083038186803b15801561299457600080fd5b505afa1580156129a8573d6000803e3d6000fd5b505050506040513d601f19601f820116820180604052508101906129cc9190613d90565b905060007f00000000000000000000000000000000000000000000000000000000000000006001600160a01b031663b13b90ff856040518263ffffffff1660e01b8152600401612a1c9190614032565b60206040518083038186803b158015612a3457600080fd5b505afa158015612a48573d6000803e3d6000fd5b505050506040513d601f19601f82011682018060405250810190612a6c9190613d90565b9050808210612a7b5780612a7d565b815b925050505b919050565b6000808511612aa85760405162461bcd60e51b81526004016104c8906144f8565b600083118015612ab85750600082115b612ad45760405162461bcd60e51b81526004016104c8906142d5565b6000612ae085876145f8565b90506000612aee84836145f8565b9050600082612aff876127106145f8565b612b0991906145c0565b9050612b1581836145d8565b98975050505050505050565b6060600282511015612b455760405162461bcd60e51b81526004016104c89061429e565b815167ffffffffffffffff811115612b6d57634e487b7160e01b600052604160045260246000fd5b604051908082528060200260200182016040528015612b96578160200160208202803683370190505b5090508381600081518110612bbb57634e487b7160e01b600052603260045260246000fd5b60200260200101818152505060005b60018351612bd89190614617565b811015612cc957600080612c4788868581518110612c0657634e487b7160e01b600052603260045260246000fd5b602002602001015187866001612c1c91906145c0565b81518110612c3a57634e487b7160e01b600052603260045260246000fd5b6020026020010151613912565b91509150612c7e848481518110612c6e57634e487b7160e01b600052603260045260246000fd5b6020026020010151878484612a87565b84612c8a8560016145c0565b81518110612ca857634e487b7160e01b600052603260045260246000fd5b60200260200101818152505050508080612cc190614671565b915050612bca565b50949350505050565b6000806000612ce1858561363f565b915091506000868383604051602001612cfb929190613f99565b60405160208183030381529060405280519060200120604051602001612d22929190613fdc565b60408051601f198184030181529190528051602090910120979650505050505050565b600080856001600160a01b03166323b872dd868686604051602401612d6c93929190614060565b6040516020818303038152906040529060e01b6020820180516001600160e01b038381831617835250505050604051612da59190613fc0565b6000604051808303816000865af19150503d8060008114612de2576040519150601f19603f3d011682016040523d82523d6000602084013e612de7565b606091505b5091509150818015612e11575080511580612e11575080806020019051810190612e119190613d26565b612e2d5760405162461bcd60e51b81526004016104c8906144b4565b505050505050565b60005b60018351612e469190614617565b81101561306f57600080848381518110612e7057634e487b7160e01b600052603260045260246000fd5b602002602001015185846001612e8691906145c0565b81518110612ea457634e487b7160e01b600052603260045260246000fd5b6020026020010151915091506000612ebc838361363f565b509050600087612ecd8660016145c0565b81518110612eeb57634e487b7160e01b600052603260045260246000fd5b60200260200101519050600080836001600160a01b0316866001600160a01b031614612f1957826000612f1d565b6000835b91509150600060028a51612f319190614617565b8810612f3d5788612f99565b612f997f0000000000000000000000000000000000000000000000000000000000000000878c612f6e8c60026145c0565b81518110612f8c57634e487b7160e01b600052603260045260246000fd5b6020026020010151612cd2565b9050612fc67f00000000000000000000000000000000000000000000000000000000000000008888612cd2565b6001600160a01b031663022c0d9f84848460006040519080825280601f01601f191660200182016040528015613003576020820181803683370190505b506040518563ffffffff1660e01b8152600401613023949392919061455a565b600060405180830381600087803b15801561303d57600080fd5b505af1158015613051573d6000803e3d6000fd5b5050505050505050505050808061306790614671565b915050612e38565b50505050565b60606002825110156130995760405162461bcd60e51b81526004016104c89061429e565b815167ffffffffffffffff8111156130c157634e487b7160e01b600052604160045260246000fd5b6040519080825280602002602001820160405280156130ea578160200160208202803683370190505b5090508381600183516130fd9190614617565b8151811061311b57634e487b7160e01b600052603260045260246000fd5b6020026020010181815250506000600183516131379190614617565b90505b8015612cc9576000806131998886613153600187614617565b8151811061317157634e487b7160e01b600052603260045260246000fd5b6020026020010151878681518110612c3a57634e487b7160e01b600052603260045260246000fd5b915091506131d08484815181106131c057634e487b7160e01b600052603260045260246000fd5b602002602001015187848461353d565b846131dc600186614617565b815181106131fa57634e487b7160e01b600052603260045260246000fd5b602002602001018181525050505080806132139061465a565b91505061313a565b60006132263361292d565b905060005b600184516132399190614617565b81101561306f5760008085838151811061326357634e487b7160e01b600052603260045260246000fd5b60200260200101518684600161327991906145c0565b8151811061329757634e487b7160e01b600052603260045260246000fd5b60200260200101519150915060006132af838361363f565b50905060006132df7f00000000000000000000000000000000000000000000000000000000000000008585612cd2565b9050600080600080846001600160a01b0316630902f1ac6040518163ffffffff1660e01b815260040160606040518083038186803b15801561332057600080fd5b505afa158015613334573d6000803e3d6000fd5b505050506040513d601f19601f820116820180604052508101906133589190613d42565b506001600160701b031691506001600160701b03169150600080876001600160a01b03168a6001600160a01b031614613392578284613395565b83835b91509150818a6001600160a01b03166370a08231896040518263ffffffff1660e01b81526004016133c69190614032565b60206040518083038186803b1580156133de57600080fd5b505afa1580156133f2573d6000803e3d6000fd5b505050506040513d601f19601f820116820180604052508101906134169190613d90565b6134209190614617565b955061342e868d8484612a87565b945050505050600080856001600160a01b0316886001600160a01b0316146134585782600061345c565b6000835b91509150600060028d516134709190614617565b8a1061347c578b6134ad565b6134ad7f0000000000000000000000000000000000000000000000000000000000000000898f612f6e8e60026145c0565b6040805160008152602081019182905263022c0d9f60e01b9091529091506001600160a01b0387169063022c0d9f906134ef908690869086906024810161455a565b600060405180830381600087803b15801561350957600080fd5b505af115801561351d573d6000803e3d6000fd5b50505050505050505050505050808061353590614671565b91505061322b565b600080851161355e5760405162461bcd60e51b81526004016104c890614190565b60008311801561356e5750600082115b61358a5760405162461bcd60e51b81526004016104c8906142d5565b600061359686856145f8565b6135a2906127106145f8565b90506000856135b18886614617565b6135bb91906145f8565b90506135c781836145d8565b6135d29060016145c0565b979650505050505050565b60008084116135fe5760405162461bcd60e51b81526004016104c89061431d565b60008311801561360e5750600082115b61362a5760405162461bcd60e51b81526004016104c8906142d5565b8261363583866145f8565b6109ae91906145d8565b600080826001600160a01b0316846001600160a01b031614156136745760405162461bcd60e51b81526004016104c8906141dc565b826001600160a01b0316846001600160a01b031610613694578284613697565b83835b90925090506001600160a01b0382166136c25760405162461bcd60e51b81526004016104c89061447d565b9250929050565b60405163e6a4390560e01b8152600090819081907f00000000000000000000000000000000000000000000000000000000000000006001600160a01b03169063e6a439059061371e908c908c90600401614046565b60206040518083038186803b15801561373657600080fd5b505afa15801561374a573d6000803e3d6000fd5b505050506040513d601f19601f8201168201806040525081019061376e9190613a83565b6001600160a01b0316141561381f576040516364e329cb60e11b81526001600160a01b037f0000000000000000000000000000000000000000000000000000000000000000169063c9c65396906137cb908b908b90600401614046565b602060405180830381600087803b1580156137e557600080fd5b505af11580156137f9573d6000803e3d6000fd5b505050506040513d601f19601f8201168201806040525081019061381d9190613a83565b505b60008061384d7f00000000000000000000000000000000000000000000000000000000000000008b8b613912565b9150915081600014801561385f575080155b1561386f57879350869250613905565b600061387c8984846135dd565b90508781116138b057858110156138a55760405162461bcd60e51b81526004016104c890614221565b889450925082613903565b60006138bd8984866135dd565b9050898111156138dd57634e487b7160e01b600052600160045260246000fd5b878110156138fd5760405162461bcd60e51b81526004016104c8906143a9565b94508793505b505b5050965096945050505050565b6000806000613921858561363f565b509050600080613932888888612cd2565b6001600160a01b0316630902f1ac6040518163ffffffff1660e01b815260040160606040518083038186803b15801561396a57600080fd5b505afa15801561397e573d6000803e3d6000fd5b505050506040513d601f19601f820116820180604052508101906139a29190613d42565b506001600160701b031691506001600160701b03169150826001600160a01b0316876001600160a01b0316146139d95780826139dc565b81815b90999098509650505050505050565b8035612a82816146b8565b60008083601f840112613a07578081fd5b50813567ffffffffffffffff811115613a1e578182fd5b60208301915083602080830285010111156136c257600080fd5b80516001600160701b0381168114612a8257600080fd5b803560ff81168114612a8257600080fd5b600060208284031215613a71578081fd5b8135613a7c816146b8565b9392505050565b600060208284031215613a94578081fd5b8151613a7c816146b8565b600080600080600080600060e0888a031215613ab9578283fd5b8735613ac4816146b8565b96506020880135613ad4816146b8565b955060408801359450606088013593506080880135925060a0880135613af9816146b8565b8092505060c0880135905092959891949750929550565b60008060008060008060008060008060006101608c8e031215613b31578384fd5b8b35613b3c816146b8565b9a5060208c0135613b4c816146b8565b995060408c0135985060608c0135975060808c0135965060a08c0135613b71816146b8565b955060c08c0135945060e08c0135613b88816146d0565b9350613b976101008d01613a4f565b92506101208c013591506101408c013590509295989b509295989b9093969950565b600080600080600080600080610100898b031215613bd5578384fd5b8835613be0816146b8565b97506020890135613bf0816146b8565b965060408901359550606089013594506080890135935060a0890135925060c0890135613c1c816146b8565b8092505060e089013590509295985092959890939650565b60008060008060008060c08789031215613c4c578182fd5b8635613c57816146b8565b95506020870135945060408701359350606087013592506080870135613c7c816146b8565b8092505060a087013590509295509295509295565b6000806000806000806000806000806101408b8d031215613cb0578384fd5b8a35613cbb816146b8565b995060208b0135985060408b0135975060608b0135965060808b0135613ce0816146b8565b955060a08b0135945060c08b0135613cf7816146d0565b9350613d0560e08c01613a4f565b92506101008b013591506101208b013590509295989b9194979a5092959850565b600060208284031215613d37578081fd5b8151613a7c816146d0565b600080600060608486031215613d56578081fd5b613d5f84613a38565b9250613d6d60208501613a38565b9150604084015163ffffffff81168114613d85578182fd5b809150509250925092565b600060208284031215613da1578081fd5b5051919050565b600080600080600060808688031215613dbf578283fd5b85359450602086013567ffffffffffffffff811115613ddc578384fd5b613de8888289016139f6565b9095509350506040860135613dfc816146b8565b949793965091946060013592915050565b60008060408385031215613e1f578182fd5b8235915060208084013567ffffffffffffffff80821115613e3e578384fd5b818601915086601f830112613e51578384fd5b813581811115613e6357613e636146a2565b83810260405185828201018181108582111715613e8257613e826146a2565b604052828152858101935084860182860187018b1015613ea0578788fd5b8795505b83861015613ec957613eb5816139eb565b855260019590950194938601938601613ea4565b508096505050505050509250929050565b60008060408385031215613eec578182fd5b505080516020909101519092909150565b60008060008060008060a08789031215613f15578384fd5b8635955060208701359450604087013567ffffffffffffffff811115613f39578485fd5b613f4589828a016139f6565b9095509350506060870135613f59816146b8565b80925050608087013590509295509295509295565b600080600060608486031215613f82578081fd5b505081359360208301359350604090920135919050565b6bffffffffffffffffffffffff19606093841b811682529190921b16601482015260280190565b60008251613fd281846020870161462e565b9190910192915050565b6001600160f81b0319815260609290921b6bffffffffffffffffffffffff1916600183015260158201527fde605d723e34ba6eda7a2dcce3b28e89a49f603223bda0c7e25ef243d2b9c92a603582015260550190565b6001600160a01b0391909116815260200190565b6001600160a01b0392831681529116602082015260400190565b6001600160a01b039384168152919092166020820152604081019190915260600190565b6001600160a01b0397881681529590961660208601526040850193909352606084019190915260ff16608083015260a082015260c081019190915260e00190565b6001600160a01b03929092168252602082015260400190565b6020808252825182820181905260009190848201906040850190845b81811015614116578351835292840192918401916001016140fa565b50909695505050505050565b6020808252601f908201527f5472616e7366657248656c7065723a205452414e534645525f4641494c454400604082015260600190565b60208082526018908201527f556e69737761705632526f757465723a20455850495245440000000000000000604082015260600190565b6020808252602c908201527f556e697377617056324c6962726172793a20494e53554646494349454e545f4f60408201526b155514155517d05353d5539560a21b606082015260800190565b60208082526025908201527f556e697377617056324c6962726172793a204944454e544943414c5f41444452604082015264455353455360d81b606082015260800190565b60208082526026908201527f556e69737761705632526f757465723a20494e53554646494349454e545f425f604082015265105353d5539560d21b606082015260800190565b6020808252601d908201527f556e69737761705632526f757465723a20494e56414c49445f50415448000000604082015260600190565b6020808252601e908201527f556e697377617056324c6962726172793a20494e56414c49445f504154480000604082015260600190565b60208082526028908201527f556e697377617056324c6962726172793a20494e53554646494349454e545f4c604082015267495155494449545960c01b606082015260800190565b60208082526025908201527f556e697377617056324c6962726172793a20494e53554646494349454e545f416040820152641353d5539560da1b606082015260800190565b60208082526027908201527f556e69737761705632526f757465723a204558434553534956455f494e50555460408201526617d05353d5539560ca1b606082015260800190565b60208082526026908201527f556e69737761705632526f757465723a20494e53554646494349454e545f415f604082015265105353d5539560d21b606082015260800190565b60208082526023908201527f5472616e7366657248656c7065723a204554485f5452414e534645525f46414960408201526213115160ea1b606082015260800190565b6020808252602b908201527f556e69737761705632526f757465723a20494e53554646494349454e545f4f5560408201526a1514155517d05353d5539560aa1b606082015260800190565b6020808252601e908201527f556e697377617056324c6962726172793a205a45524f5f414444524553530000604082015260600190565b60208082526024908201527f5472616e7366657248656c7065723a205452414e534645525f46524f4d5f46416040820152631253115160e21b606082015260800190565b6020808252602b908201527f556e697377617056324c6962726172793a20494e53554646494349454e545f4960408201526a1394155517d05353d5539560aa1b606082015260800190565b90815260200190565b918252602082015260400190565b600085825284602083015260018060a01b03841660408301526080606083015282518060808401526145938160a085016020870161462e565b601f01601f19169190910160a00195945050505050565b9283526020830191909152604082015260600190565b600082198211156145d3576145d361468c565b500190565b6000826145f357634e487b7160e01b81526012600452602481fd5b500490565b60008160001904831182151516156146125761461261468c565b500290565b6000828210156146295761462961468c565b500390565b60005b83811015614649578181015183820152602001614631565b8381111561306f5750506000910152565b6000816146695761466961468c565b506000190190565b60006000198214156146855761468561468c565b5060010190565b634e487b7160e01b600052601160045260246000fd5b634e487b7160e01b600052604160045260246000fd5b6001600160a01b03811681146146cd57600080fd5b50565b80151581146146cd57600080fdfea26469706673582212201d22e52ea2c08aeeb3a16a65478ffe1fd0b056c9ea2b388a7cd06abd4d5f782864736f6c63430008000033",
  "immutableReferences": {
    "8872": [
      {
        "length": 32,
        "start": 1675
      },
      {
        "length": 32,
        "start": 1914
      },
      {
        "length": 32,
        "start": 2439
      },
      {
        "length": 32,
        "start": 2496
      },
      {
        "length": 32,
        "start": 2756
      },
      {
        "length": 32,
        "start": 3227
      },
      {
        "length": 32,
        "start": 3399
      },
      {
        "length": 32,
        "start": 3724
      },
      {
        "length": 32,
        "start": 5128
      },
      {
        "length": 32,
        "start": 5512
      },
      {
        "length": 32,
        "start": 5961
      },
      {
        "length": 32,
        "start": 6884
      },
      {
        "length": 32,
        "start": 7489
      },
      {
        "length": 32,
        "start": 7931
      },
      {
        "length": 32,
        "start": 7985
      },
      {
        "length": 32,
        "start": 8034
      },
      {
        "length": 32,
        "start": 8331
      },
      {
        "length": 32,
        "start": 8635
      },
      {
        "length": 32,
        "start": 9377
      },
      {
        "length": 32,
        "start": 9749
      },
      {
        "length": 32,
        "start": 10546
      },
      {
        "length": 32,
        "start": 10706
      },
      {
        "length": 32,
        "start": 12098
      },
      {
        "length": 32,
        "start": 12192
      },
      {
        "length": 32,
        "start": 12985
      },
      {
        "length": 32,
        "start": 13441
      },
      {
        "length": 32,
        "start": 14047
      },
      {
        "length": 32,
        "start": 14228
      },
      {
        "length": 32,
        "start": 14375
      }
    ],
    "8875": [
      {
        "length": 32,
        "start": 351
      },
      {
        "length": 32,
        "start": 1239
      },
      {
        "length": 32,
        "start": 1319
      },
      {
        "length": 32,
        "start": 1524
      },
      {
        "length": 32,
        "start": 2169
      },
      {
        "length": 32,
        "start": 3076
      },
      {
        "length": 32,
        "start": 3433
      },
      {
        "length": 32,
        "start": 4381
      },
      {
        "length": 32,
        "start": 4638
      },
      {
        "length": 32,
        "start": 4828
      },
      {
        "length": 32,
        "start": 4978
      },
      {
        "length": 32,
        "start": 5306
      },
      {
        "length": 32,
        "start": 5462
      },
      {
        "length": 32,
        "start": 6127
      },
      {
        "length": 32,
        "start": 6215
      },
      {
        "length": 32,
        "start": 6420
      },
      {
        "length": 32,
        "start": 6579
      },
      {
        "length": 32,
        "start": 6718
      },
      {
        "length": 32,
        "start": 6834
      },
      {
        "length": 32,
        "start": 8068
      },
      {
        "length": 32,
        "start": 8583
      },
      {
        "length": 32,
        "start": 8669
      },
      {
        "length": 32,
        "start": 8721
      },
      {
        "length": 32,
        "start": 8855
      },
      {
        "length": 32,
        "start": 9227
      },
      {
        "length": 32,
        "start": 9543
      },
      {
        "length": 32,
        "start": 9699
      }
    ]
  },
  "source": "pragma solidity ^0.8.0;\n\nimport './libraries/UniswapV2Library.sol';\nimport './libraries/TransferHelper.sol';\nimport './interfaces/IUniswapV2Router02.sol';\nimport './interfaces/IUniswapV2Factory.sol';\nimport './interfaces/IERC20.sol';\nimport './interfaces/IWETH.sol';\n\ncontract UniswapV2Router02 is IUniswapV2Router02 {\n    uint256 private constant MAX_256 = 2**256 - 1;\n\n    address public immutable override factory;\n    address public immutable override WETH;\n\n    modifier ensure(uint deadline) {\n        require(deadline >= block.timestamp, 'UniswapV2Router: EXPIRED');\n        _;\n    }\n\n    constructor(address _factory, address _WETH) {\n        factory = _factory;\n        WETH = _WETH;\n    }\n\n    receive() external payable {\n        assert(msg.sender == WETH); // only accept ETH via fallback from the WETH contract\n    }\n\n    // **** ADD LIQUIDITY ****\n    function _addLiquidity(\n        address tokenA,\n        address tokenB,\n        uint amountADesired,\n        uint amountBDesired,\n        uint amountAMin,\n        uint amountBMin\n    ) internal virtual returns (uint amountA, uint amountB) {\n        // create the pair if it doesn't exist yet\n        if (IUniswapV2Factory(factory).getPair(tokenA, tokenB) == address(0)) {\n            IUniswapV2Factory(factory).createPair(tokenA, tokenB);\n        }\n        (uint reserveA, uint reserveB) = UniswapV2Library.getReserves(factory, tokenA, tokenB);\n        if (reserveA == 0 && reserveB == 0) {\n            (amountA, amountB) = (amountADesired, amountBDesired);\n        } else {\n            uint amountBOptimal = UniswapV2Library.quote(amountADesired, reserveA, reserveB);\n            if (amountBOptimal <= amountBDesired) {\n                require(amountBOptimal >= amountBMin, 'UniswapV2Router: INSUFFICIENT_B_AMOUNT');\n                (amountA, amountB) = (amountADesired, amountBOptimal);\n            } else {\n                uint amountAOptimal = UniswapV2Library.quote(amountBDesired, reserveB, reserveA);\n                assert(amountAOptimal <= amountADesired);\n                require(amountAOptimal >= amountAMin, 'UniswapV2Router: INSUFFICIENT_A_AMOUNT');\n                (amountA, amountB) = (amountAOptimal, amountBDesired);\n            }\n        }\n    }\n    function addLiquidity(\n        address tokenA,\n        address tokenB,\n        uint amountADesired,\n        uint amountBDesired,\n        uint amountAMin,\n        uint amountBMin,\n        address to,\n        uint deadline\n    ) external virtual override ensure(deadline) returns (uint amountA, uint amountB, uint liquidity) {\n        (amountA, amountB) = _addLiquidity(tokenA, tokenB, amountADesired, amountBDesired, amountAMin, amountBMin);\n        address pair = UniswapV2Library.pairFor(factory, tokenA, tokenB);\n        TransferHelper.safeTransferFrom(tokenA, msg.sender, pair, amountA);\n        TransferHelper.safeTransferFrom(tokenB, msg.sender, pair, amountB);\n        liquidity = IUniswapV2Pair(pair).mint(to);\n    }\n    function addLiquidityETH(\n        address token,\n        uint amountTokenDesired,\n        uint amountTokenMin,\n        uint amountETHMin,\n        address to,\n        uint deadline\n    ) external virtual override payable ensure(deadline) returns (uint amountToken, uint amountETH, uint liquidity) {\n        (amountToken, amountETH) = _addLiquidity(\n            token,\n            WETH,\n            amountTokenDesired,\n            msg.value,\n            amountTokenMin,\n            amountETHMin\n        );\n        address pair = UniswapV2Library.pairFor(factory, token, WETH);\n        TransferHelper.safeTransferFrom(token, msg.sender, pair, amountToken);\n        IWETH(WETH).deposit{value: amountETH}();\n        assert(IWETH(WETH).transfer(pair, amountETH));\n        liquidity = IUniswapV2Pair(pair).mint(to);\n        // refund dust eth, if any\n        if (msg.value > amountETH) TransferHelper.safeTransferETH(msg.sender, msg.value - amountETH);\n    }\n\n    // **** REMOVE LIQUIDITY ****\n    function removeLiquidity(\n        address tokenA,\n        address tokenB,\n        uint liquidity,\n        uint amountAMin,\n        uint amountBMin,\n        address to,\n        uint deadline\n    ) public virtual override ensure(deadline) returns (uint amountA, uint amountB) {\n        address pair = UniswapV2Library.pairFor(factory, tokenA, tokenB);\n        IUniswapV2Pair(pair).transferFrom(msg.sender, pair, liquidity); // send liquidity to pair\n        (uint amount0, uint amount1) = IUniswapV2Pair(pair).burn(to);\n        (address token0,) = UniswapV2Library.sortTokens(tokenA, tokenB);\n        (amountA, amountB) = tokenA == token0 ? (amount0, amount1) : (amount1, amount0);\n        require(amountA >= amountAMin, 'UniswapV2Router: INSUFFICIENT_A_AMOUNT');\n        require(amountB >= amountBMin, 'UniswapV2Router: INSUFFICIENT_B_AMOUNT');\n    }\n    function removeLiquidityETH(\n        address token,\n        uint liquidity,\n        uint amountTokenMin,\n        uint amountETHMin,\n        address to,\n        uint deadline\n    ) public virtual override ensure(deadline) returns (uint amountToken, uint amountETH) {\n        (amountToken, amountETH) = removeLiquidity(\n            token,\n            WETH,\n            liquidity,\n            amountTokenMin,\n            amountETHMin,\n            address(this),\n            deadline\n        );\n        TransferHelper.safeTransfer(token, to, amountToken);\n        IWETH(WETH).withdraw(amountETH);\n        TransferHelper.safeTransferETH(to, amountETH);\n    }\n    function removeLiquidityWithPermit(\n        address tokenA,\n        address tokenB,\n        uint liquidity,\n        uint amountAMin,\n        uint amountBMin,\n        address to,\n        uint deadline,\n        bool approveMax, uint8 v, bytes32 r, bytes32 s\n    ) external virtual override returns (uint amountA, uint amountB) {\n        address pair = UniswapV2Library.pairFor(factory, tokenA, tokenB);\n        uint value = approveMax ? MAX_256 : liquidity;\n        IUniswapV2Pair(pair).permit(msg.sender, address(this), value, deadline, v, r, s);\n        (amountA, amountB) = removeLiquidity(tokenA, tokenB, liquidity, amountAMin, amountBMin, to, deadline);\n    }\n    function removeLiquidityETHWithPermit(\n        address token,\n        uint liquidity,\n        uint amountTokenMin,\n        uint amountETHMin,\n        address to,\n        uint deadline,\n        bool approveMax, uint8 v, bytes32 r, bytes32 s\n    ) external virtual override returns (uint amountToken, uint amountETH) {\n        address pair = UniswapV2Library.pairFor(factory, token, WETH);\n        uint value = approveMax ? MAX_256 : liquidity;\n        IUniswapV2Pair(pair).permit(msg.sender, address(this), value, deadline, v, r, s);\n        (amountToken, amountETH) = removeLiquidityETH(token, liquidity, amountTokenMin, amountETHMin, to, deadline);\n    }\n\n    // **** REMOVE LIQUIDITY (supporting fee-on-transfer tokens) ****\n    function removeLiquidityETHSupportingFeeOnTransferTokens(\n        address token,\n        uint liquidity,\n        uint amountTokenMin,\n        uint amountETHMin,\n        address to,\n        uint deadline\n    ) public virtual override ensure(deadline) returns (uint amountETH) {\n        (, amountETH) = removeLiquidity(\n            token,\n            WETH,\n            liquidity,\n            amountTokenMin,\n            amountETHMin,\n            address(this),\n            deadline\n        );\n        TransferHelper.safeTransfer(token, to, IERC20Uniswap(token).balanceOf(address(this)));\n        IWETH(WETH).withdraw(amountETH);\n        TransferHelper.safeTransferETH(to, amountETH);\n    }\n    function removeLiquidityETHWithPermitSupportingFeeOnTransferTokens(\n        address token,\n        uint liquidity,\n        uint amountTokenMin,\n        uint amountETHMin,\n        address to,\n        uint deadline,\n        bool approveMax, uint8 v, bytes32 r, bytes32 s\n    ) external virtual override returns (uint amountETH) {\n        address pair = UniswapV2Library.pairFor(factory, token, WETH);\n        uint value = approveMax ? MAX_256 : liquidity;\n        IUniswapV2Pair(pair).permit(msg.sender, address(this), value, deadline, v, r, s);\n        amountETH = removeLiquidityETHSupportingFeeOnTransferTokens(\n            token, liquidity, amountTokenMin, amountETHMin, to, deadline\n        );\n    }\n\n    // **** RATE ****\n    function _swapRate(address _client) internal view returns (uint) {\n        uint routerRateDimi = IUniswapV2Factory(factory).swapRateDimi(address(this));\n        uint swapRateDimi = IUniswapV2Factory(factory).swapRateDimi(_client);\n        return routerRateDimi < swapRateDimi ? routerRateDimi : swapRateDimi;\n    }\n\n    // **** SWAP ****\n    // requires the initial amount to have already been sent to the first pair\n    function _swap(uint[] memory amounts, address[] memory path, address _to) internal virtual {\n        for (uint i; i < path.length - 1; i++) {\n            (address input, address output) = (path[i], path[i + 1]);\n            (address token0,) = UniswapV2Library.sortTokens(input, output);\n            uint amountOut = amounts[i + 1];\n            (uint amount0Out, uint amount1Out) = input == token0 ? (uint(0), amountOut) : (amountOut, uint(0));\n            address to = i < path.length - 2 ? UniswapV2Library.pairFor(factory, output, path[i + 2]) : _to;\n            IUniswapV2Pair(UniswapV2Library.pairFor(factory, input, output)).swap(\n                amount0Out, amount1Out, to, new bytes(0)\n            );\n        }\n    }\n    function swapExactTokensForTokens(\n        uint amountIn,\n        uint amountOutMin,\n        address[] calldata path,\n        address to,\n        uint deadline\n    ) external virtual override ensure(deadline) returns (uint[] memory amounts) {\n        uint swapRateDimi = _swapRate(msg.sender);\n        amounts = UniswapV2Library.getAmountsOut(factory, amountIn, swapRateDimi, path);\n        require(amounts[amounts.length - 1] >= amountOutMin, 'UniswapV2Router: INSUFFICIENT_OUTPUT_AMOUNT');\n        TransferHelper.safeTransferFrom(\n            path[0], msg.sender, UniswapV2Library.pairFor(factory, path[0], path[1]), amounts[0]\n        );\n        _swap(amounts, path, to);\n    }\n    function swapTokensForExactTokens(\n        uint amountOut,\n        uint amountInMax,\n        address[] calldata path,\n        address to,\n        uint deadline\n    ) external virtual override ensure(deadline) returns (uint[] memory amounts) {\n        uint swapRateDimi = _swapRate(msg.sender);\n        amounts = UniswapV2Library.getAmountsIn(factory, amountOut, swapRateDimi, path);\n        require(amounts[0] <= amountInMax, 'UniswapV2Router: EXCESSIVE_INPUT_AMOUNT');\n        TransferHelper.safeTransferFrom(\n            path[0], msg.sender, UniswapV2Library.pairFor(factory, path[0], path[1]), amounts[0]\n        );\n        _swap(amounts, path, to);\n    }\n    function swapExactETHForTokens(uint amountOutMin, address[] calldata path, address to, uint deadline)\n        external\n        virtual\n        override\n        payable\n        ensure(deadline)\n        returns (uint[] memory amounts)\n    {\n        require(path[0] == WETH, 'UniswapV2Router: INVALID_PATH');\n        uint swapRateDimi = _swapRate(msg.sender);\n        amounts = UniswapV2Library.getAmountsOut(factory, msg.value, swapRateDimi, path);\n        require(amounts[amounts.length - 1] >= amountOutMin, 'UniswapV2Router: INSUFFICIENT_OUTPUT_AMOUNT');\n        IWETH(WETH).deposit{value: amounts[0]}();\n        assert(IWETH(WETH).transfer(UniswapV2Library.pairFor(factory, path[0], path[1]), amounts[0]));\n        _swap(amounts, path, to);\n    }\n    function swapTokensForExactETH(uint amountOut, uint amountInMax, address[] calldata path, address to, uint deadline)\n        external\n        virtual\n        override\n        ensure(deadline)\n        returns (uint[] memory amounts)\n    {\n        require(path[path.length - 1] == WETH, 'UniswapV2Router: INVALID_PATH');\n        uint swapRateDimi = _swapRate(msg.sender);\n        amounts = UniswapV2Library.getAmountsIn(factory, amountOut, swapRateDimi, path);\n        require(amounts[0] <= amountInMax, 'UniswapV2Router: EXCESSIVE_INPUT_AMOUNT');\n        TransferHelper.safeTransferFrom(\n            path[0], msg.sender, UniswapV2Library.pairFor(factory, path[0], path[1]), amounts[0]\n        );\n        _swap(amounts, path, address(this));\n        IWETH(WETH).withdraw(amounts[amounts.length - 1]);\n        TransferHelper.safeTransferETH(to, amounts[amounts.length - 1]);\n    }\n    function swapExactTokensForETH(uint amountIn, uint amountOutMin, address[] calldata path, address to, uint deadline)\n        external\n        virtual\n        override\n        ensure(deadline)\n        returns (uint[] memory amounts)\n    {\n        require(path[path.length - 1] == WETH, 'UniswapV2Router: INVALID_PATH');\n        uint swapRateDimi = _swapRate(msg.sender);\n        amounts = UniswapV2Library.getAmountsOut(factory, amountIn, swapRateDimi, path);\n        require(amounts[amounts.length - 1] >= amountOutMin, 'UniswapV2Router: INSUFFICIENT_OUTPUT_AMOUNT');\n        TransferHelper.safeTransferFrom(\n            path[0], msg.sender, UniswapV2Library.pairFor(factory, path[0], path[1]), amounts[0]\n        );\n        _swap(amounts, path, address(this));\n        IWETH(WETH).withdraw(amounts[amounts.length - 1]);\n        TransferHelper.safeTransferETH(to, amounts[amounts.length - 1]);\n    }\n    function swapETHForExactTokens(uint amountOut, address[] calldata path, address to, uint deadline)\n        external\n        virtual\n        override\n        payable\n        ensure(deadline)\n        returns (uint[] memory amounts)\n    {\n        require(path[0] == WETH, 'UniswapV2Router: INVALID_PATH');\n        uint swapRateDimi = _swapRate(msg.sender);\n        amounts = UniswapV2Library.getAmountsIn(factory, amountOut, swapRateDimi, path);\n        require(amounts[0] <= msg.value, 'UniswapV2Router: EXCESSIVE_INPUT_AMOUNT');\n        IWETH(WETH).deposit{value: amounts[0]}();\n        assert(IWETH(WETH).transfer(UniswapV2Library.pairFor(factory, path[0], path[1]), amounts[0]));\n        _swap(amounts, path, to);\n        // refund dust eth, if any\n        if (msg.value > amounts[0]) TransferHelper.safeTransferETH(msg.sender, msg.value - amounts[0]);\n    }\n\n    // **** SWAP (supporting fee-on-transfer tokens) ****\n    // requires the initial amount to have already been sent to the first pair\n    function _swapSupportingFeeOnTransferTokens(address[] memory path, address _to) internal virtual {\n        uint swapRateDimi = _swapRate(msg.sender);\n        for (uint i; i < path.length - 1; i++) {\n            (address input, address output) = (path[i], path[i + 1]);\n            (address token0,) = UniswapV2Library.sortTokens(input, output);\n            IUniswapV2Pair pair = IUniswapV2Pair(UniswapV2Library.pairFor(factory, input, output));\n            uint amountInput;\n            uint amountOutput;\n            { // scope to avoid stack too deep errors\n            (uint reserve0, uint reserve1,) = pair.getReserves();\n            (uint reserveInput, uint reserveOutput) = input == token0 ? (reserve0, reserve1) : (reserve1, reserve0);\n            amountInput = IERC20Uniswap(input).balanceOf(address(pair)) - reserveInput;\n            amountOutput = UniswapV2Library.getAmountOut(amountInput, swapRateDimi, reserveInput, reserveOutput);\n            }\n            (uint amount0Out, uint amount1Out) = input == token0 ? (uint(0), amountOutput) : (amountOutput, uint(0));\n            address to = i < path.length - 2 ? UniswapV2Library.pairFor(factory, output, path[i + 2]) : _to;\n            pair.swap(amount0Out, amount1Out, to, new bytes(0));\n        }\n    }\n    function swapExactTokensForTokensSupportingFeeOnTransferTokens(\n        uint amountIn,\n        uint amountOutMin,\n        address[] calldata path,\n        address to,\n        uint deadline\n    ) external virtual override ensure(deadline) {\n        TransferHelper.safeTransferFrom(\n            path[0], msg.sender, UniswapV2Library.pairFor(factory, path[0], path[1]), amountIn\n        );\n        uint balanceBefore = IERC20Uniswap(path[path.length - 1]).balanceOf(to);\n        _swapSupportingFeeOnTransferTokens(path, to);\n        require(\n            IERC20Uniswap(path[path.length - 1]).balanceOf(to) - balanceBefore >= amountOutMin,\n            'UniswapV2Router: INSUFFICIENT_OUTPUT_AMOUNT'\n        );\n    }\n    function swapExactETHForTokensSupportingFeeOnTransferTokens(\n        uint amountOutMin,\n        address[] calldata path,\n        address to,\n        uint deadline\n    )\n        external\n        virtual\n        override\n        payable\n        ensure(deadline)\n    {\n        require(path[0] == WETH, 'UniswapV2Router: INVALID_PATH');\n        uint amountIn = msg.value;\n        IWETH(WETH).deposit{value: amountIn}();\n        assert(IWETH(WETH).transfer(UniswapV2Library.pairFor(factory, path[0], path[1]), amountIn));\n        uint balanceBefore = IERC20Uniswap(path[path.length - 1]).balanceOf(to);\n        _swapSupportingFeeOnTransferTokens(path, to);\n        require(\n            IERC20Uniswap(path[path.length - 1]).balanceOf(to) - balanceBefore >= amountOutMin,\n            'UniswapV2Router: INSUFFICIENT_OUTPUT_AMOUNT'\n        );\n    }\n    function swapExactTokensForETHSupportingFeeOnTransferTokens(\n        uint amountIn,\n        uint amountOutMin,\n        address[] calldata path,\n        address to,\n        uint deadline\n    )\n        external\n        virtual\n        override\n        ensure(deadline)\n    {\n        require(path[path.length - 1] == WETH, 'UniswapV2Router: INVALID_PATH');\n        TransferHelper.safeTransferFrom(\n            path[0], msg.sender, UniswapV2Library.pairFor(factory, path[0], path[1]), amountIn\n        );\n        _swapSupportingFeeOnTransferTokens(path, address(this));\n        uint amountOut = IERC20Uniswap(WETH).balanceOf(address(this));\n        require(amountOut >= amountOutMin, 'UniswapV2Router: INSUFFICIENT_OUTPUT_AMOUNT');\n        IWETH(WETH).withdraw(amountOut);\n        TransferHelper.safeTransferETH(to, amountOut);\n    }\n\n    // **** LIBRARY FUNCTIONS ****\n    function quote(uint amountA, uint reserveA, uint reserveB) public pure virtual override returns (uint amountB) {\n        return UniswapV2Library.quote(amountA, reserveA, reserveB);\n    }\n\n    function getAmountOut(uint amountIn, uint reserveIn, uint reserveOut)\n        public\n        view\n        virtual\n        override\n        returns (uint amountOut)\n    {\n        uint swapRateDimi = _swapRate(msg.sender);\n        return UniswapV2Library.getAmountOut(amountIn, swapRateDimi, reserveIn, reserveOut);\n    }\n\n    function getAmountIn(uint amountOut, uint reserveIn, uint reserveOut)\n        public\n        view\n        virtual\n        override\n        returns (uint amountIn)\n    {\n        uint swapRateDimi = _swapRate(msg.sender);\n        return UniswapV2Library.getAmountIn(amountOut, swapRateDimi, reserveIn, reserveOut);\n    }\n\n    function getAmountsOut(uint amountIn, address[] memory path)\n        public\n        view\n        virtual\n        override\n        returns (uint[] memory amounts)\n    {\n        uint swapRateDimi = _swapRate(msg.sender);\n        return UniswapV2Library.getAmountsOut(factory, amountIn, swapRateDimi, path);\n    }\n\n    function getAmountsIn(uint amountOut, address[] memory path)\n        public\n        view\n        virtual\n        override\n        returns (uint[] memory amounts)\n    {\n        uint swapRateDimi = _swapRate(msg.sender);\n        return UniswapV2Library.getAmountsIn(factory, amountOut, swapRateDimi, path);\n    }\n}\n",
  "sourcePath": "/Users/jake/Documents/Development/Freelance/Rara/Git/rara-core/contracts/uniswapv2/UniswapV2Router02.sol",
  "compiler": {
    "name": "solc",
    "version": "0.8.0+commit.c7dfd78e.Emscripten.clang"
  },
  "schemaVersion": "3.4.1",
  "updatedAt": "2021-06-18T21:25:57.903Z",
  "networkType": "ethereum",
  "devdoc": {
    "kind": "dev",
    "methods": {},
    "version": 1
  },
  "userdoc": {
    "kind": "user",
    "methods": {},
    "version": 1
  }
}